{
  "contractName": "Simple",
  "abi": [
    {
      "inputs": [],
      "stateMutability": "nonpayable",
      "type": "constructor"
    },
    {
      "inputs": [],
      "name": "name",
      "outputs": [
        {
          "internalType": "string",
          "name": "",
          "type": "string"
        }
      ],
      "stateMutability": "view",
      "type": "function",
      "constant": true
    },
    {
      "inputs": [],
      "name": "getName",
      "outputs": [
        {
          "internalType": "string",
          "name": "",
          "type": "string"
        }
      ],
      "stateMutability": "view",
      "type": "function",
      "constant": true
    },
    {
      "inputs": [
        {
          "internalType": "string",
          "name": "_name",
          "type": "string"
        }
      ],
      "name": "changeName",
      "outputs": [],
      "stateMutability": "nonpayable",
      "type": "function"
    }
  ],
  "bytecode": "0x608060405234801561001057600080fd5b506040518060400160405280600781526020017f6d79206e616d65000000000000000000000000000000000000000000000000008152506000908051906020019061005c929190610062565b50610165565b82805461006e90610134565b90600052602060002090601f01602090048101928261009057600085556100d7565b82601f106100a957805160ff19168380011785556100d7565b828001600101855582156100d7579182015b828111156100d65782518255916020019190600101906100bb565b5b5090506100e491906100e8565b5090565b5b808211156101015760008160009055506001016100e9565b5090565b7f4e487b7100000000000000000000000000000000000000000000000000000000600052602260045260246000fd5b6000600282049050600182168061014c57607f821691505b60208210810361015f5761015e610105565b5b50919050565b610484806101746000396000f3fe608060405234801561001057600080fd5b50600436106100415760003560e01c806306fdde031461004657806317d7de7c146100645780635353a2d814610082575b600080fd5b61004e61009e565b60405161005b9190610310565b60405180910390f35b61006c61012c565b6040516100799190610310565b60405180910390f35b61009c600480360381019061009791906103a1565b6101be565b005b600080546100ab9061041d565b80601f01602080910402602001604051908101604052809291908181526020018280546100d79061041d565b80156101245780601f106100f957610100808354040283529160200191610124565b820191906000526020600020905b81548152906001019060200180831161010757829003601f168201915b505050505081565b60606000805461013b9061041d565b80601f01602080910402602001604051908101604052809291908181526020018280546101679061041d565b80156101b45780601f10610189576101008083540402835291602001916101b4565b820191906000526020600020905b81548152906001019060200180831161019757829003601f168201915b5050505050905090565b8181600091906101cf9291906101d4565b505050565b8280546101e09061041d565b90600052602060002090601f0160209004810192826102025760008555610249565b82601f1061021b57803560ff1916838001178555610249565b82800160010185558215610249579182015b8281111561024857823582559160200191906001019061022d565b5b509050610256919061025a565b5090565b5b8082111561027357600081600090555060010161025b565b5090565b600081519050919050565b600082825260208201905092915050565b60005b838110156102b1578082015181840152602081019050610296565b838111156102c0576000848401525b50505050565b6000601f19601f8301169050919050565b60006102e282610277565b6102ec8185610282565b93506102fc818560208601610293565b610305816102c6565b840191505092915050565b6000602082019050818103600083015261032a81846102d7565b905092915050565b600080fd5b600080fd5b600080fd5b600080fd5b600080fd5b60008083601f8401126103615761036061033c565b5b8235905067ffffffffffffffff81111561037e5761037d610341565b5b60208301915083600182028301111561039a57610399610346565b5b9250929050565b600080602083850312156103b8576103b7610332565b5b600083013567ffffffffffffffff8111156103d6576103d5610337565b5b6103e28582860161034b565b92509250509250929050565b7f4e487b7100000000000000000000000000000000000000000000000000000000600052602260045260246000fd5b6000600282049050600182168061043557607f821691505b602082108103610448576104476103ee565b5b5091905056fea2646970667358221220ec4ffe2cc31e822b66deb356a150f7170c985d1718e4f58d334c1fadf8747e8e64736f6c634300080d0033",
  "immutableReferences": {},
  "source": "// SPDX-License-Identifier: MIT\npragma solidity >=0.4.22 <0.9.0;\n\ncontract Simple {\n  string public name;\n   \n  constructor() {\n    name = 'my name';\n  }\n \n  // Exemplu pentru diferenta dintre string memory si string calldata\n  // memory poate fi modificat in functie / returnat, gas price -> higher\n  // calldata este readonly si este calculat de caller, este constant, readonly gas price -> lower\n  function getName() public view returns (string memory) {\n    return (name);\n  }\n \n  function changeName(string calldata _name) public {\n    name = _name;\n  }\n}\n",
  "sourcePath": "/home/teom/Projects/NFT-Karma/Backend/contracts/Simple.sol",
  "compiler": {
    "name": "solc",
    "version": "0.8.13+commit.abaa5c0e.Emscripten.clang"
  },
  "schemaVersion": "3.4.6",
  "updatedAt": "2022-04-08T11:56:03.324Z",
  "networkType": "ethereum",
  "devdoc": {
    "kind": "dev",
    "methods": {},
    "version": 1
  },
  "userdoc": {
    "kind": "user",
    "methods": {},
    "version": 1
  }
}